{
  "contractName": "Marketplace",
  "abi": [
    {
      "anonymous": false,
      "inputs": [
        {
          "indexed": false,
          "internalType": "uint256",
          "name": "id",
          "type": "uint256"
        },
        {
          "indexed": false,
          "internalType": "address",
          "name": "seller",
          "type": "address"
        },
        {
          "indexed": false,
          "internalType": "uint256",
          "name": "price",
          "type": "uint256"
        }
      ],
      "name": "ItemListed",
      "type": "event"
    },
    {
      "anonymous": false,
      "inputs": [
        {
          "indexed": false,
          "internalType": "uint256",
          "name": "id",
          "type": "uint256"
        },
        {
          "indexed": false,
          "internalType": "address",
          "name": "seller",
          "type": "address"
        },
        {
          "indexed": false,
          "internalType": "address",
          "name": "buyer",
          "type": "address"
        },
        {
          "indexed": false,
          "internalType": "uint256",
          "name": "price",
          "type": "uint256"
        }
      ],
      "name": "ItemSold",
      "type": "event"
    },
    {
      "inputs": [],
      "name": "itemCount",
      "outputs": [
        {
          "internalType": "uint256",
          "name": "",
          "type": "uint256"
        }
      ],
      "stateMutability": "view",
      "type": "function"
    },
    {
      "inputs": [
        {
          "internalType": "uint256",
          "name": "",
          "type": "uint256"
        }
      ],
      "name": "items",
      "outputs": [
        {
          "internalType": "uint256",
          "name": "id",
          "type": "uint256"
        },
        {
          "internalType": "address payable",
          "name": "seller",
          "type": "address"
        },
        {
          "internalType": "address payable",
          "name": "buyer",
          "type": "address"
        },
        {
          "internalType": "uint256",
          "name": "price",
          "type": "uint256"
        },
        {
          "internalType": "bool",
          "name": "sold",
          "type": "bool"
        }
      ],
      "stateMutability": "view",
      "type": "function"
    },
    {
      "inputs": [
        {
          "internalType": "uint256",
          "name": "_price",
          "type": "uint256"
        }
      ],
      "name": "listItem",
      "outputs": [],
      "stateMutability": "nonpayable",
      "type": "function"
    },
    {
      "inputs": [
        {
          "internalType": "uint256",
          "name": "_id",
          "type": "uint256"
        }
      ],
      "name": "buyItem",
      "outputs": [],
      "stateMutability": "payable",
      "type": "function"
    }
  ],
  "bytecode": "0x608060405234801561000f575f80fd5b5061097c8061001d5f395ff3fe60806040526004361061003e575f3560e01c80632ce38190146100425780636bfb0d011461006a578063bfb231d214610094578063e7fb74c7146100d4575b5f80fd5b34801561004d575f80fd5b5061006860048036038101906100639190610574565b6100f0565b005b348015610075575f80fd5b5061007e61026d565b60405161008b91906105ae565b60405180910390f35b34801561009f575f80fd5b506100ba60048036038101906100b59190610574565b610272565b6040516100cb959493929190610620565b60405180910390f35b6100ee60048036038101906100e99190610574565b6102ee565b005b5f808154809291906101019061069e565b91905055506040518060a001604052805f5481526020013373ffffffffffffffffffffffffffffffffffffffff1681526020015f73ffffffffffffffffffffffffffffffffffffffff1681526020018281526020015f151581525060015f805481526020019081526020015f205f820151815f01556020820151816001015f6101000a81548173ffffffffffffffffffffffffffffffffffffffff021916908373ffffffffffffffffffffffffffffffffffffffff1602179055506040820151816002015f6101000a81548173ffffffffffffffffffffffffffffffffffffffff021916908373ffffffffffffffffffffffffffffffffffffffff160217905550606082015181600301556080820151816004015f6101000a81548160ff0219169083151502179055509050507fc93edc6ee14cd6c0c2842099adfa8953b237dbdad304ba28e96dce8a7f2a828c5f54338360405161026293929190610705565b60405180910390a150565b5f5481565b6001602052805f5260405f205f91509050805f015490806001015f9054906101000a900473ffffffffffffffffffffffffffffffffffffffff1690806002015f9054906101000a900473ffffffffffffffffffffffffffffffffffffffff1690806003015490806004015f9054906101000a900460ff16905085565b5f60015f8381526020019081526020015f2090505f8211801561031257505f548211155b610351576040517f08c379a000000000000000000000000000000000000000000000000000000000815260040161034890610794565b60405180910390fd5b8060030154341015610398576040517f08c379a000000000000000000000000000000000000000000000000000000000815260040161038f90610822565b60405180910390fd5b806004015f9054906101000a900460ff16156103e9576040517f08c379a00000000000000000000000000000000000000000000000000000000081526004016103e09061088a565b60405180910390fd5b33816002015f6101000a81548173ffffffffffffffffffffffffffffffffffffffff021916908373ffffffffffffffffffffffffffffffffffffffff160217905550806001015f9054906101000a900473ffffffffffffffffffffffffffffffffffffffff1673ffffffffffffffffffffffffffffffffffffffff166108fc826003015490811502906040515f60405180830381858888f19350505050158015610495573d5f803e3d5ffd5b506001816004015f6101000a81548160ff0219169083151502179055507f04ddd54c6b746e69ba87f862311f7670bd1d7276846778ac81cd38747b27a74682826001015f9054906101000a900473ffffffffffffffffffffffffffffffffffffffff16836002015f9054906101000a900473ffffffffffffffffffffffffffffffffffffffff1684600301546040516105319493929190610903565b60405180910390a15050565b5f80fd5b5f819050919050565b61055381610541565b811461055d575f80fd5b50565b5f8135905061056e8161054a565b92915050565b5f602082840312156105895761058861053d565b5b5f61059684828501610560565b91505092915050565b6105a881610541565b82525050565b5f6020820190506105c15f83018461059f565b92915050565b5f73ffffffffffffffffffffffffffffffffffffffff82169050919050565b5f6105f0826105c7565b9050919050565b610600816105e6565b82525050565b5f8115159050919050565b61061a81610606565b82525050565b5f60a0820190506106335f83018861059f565b61064060208301876105f7565b61064d60408301866105f7565b61065a606083018561059f565b6106676080830184610611565b9695505050505050565b7f4e487b71000000000000000000000000000000000000000000000000000000005f52601160045260245ffd5b5f6106a882610541565b91507fffffffffffffffffffffffffffffffffffffffffffffffffffffffffffffffff82036106da576106d9610671565b5b600182019050919050565b5f6106ef826105c7565b9050919050565b6106ff816106e5565b82525050565b5f6060820190506107185f83018661059f565b61072560208301856106f6565b610732604083018461059f565b949350505050565b5f82825260208201905092915050565b7f4974656d20646f6573206e6f74206578697374000000000000000000000000005f82015250565b5f61077e60138361073a565b91506107898261074a565b602082019050919050565b5f6020820190508181035f8301526107ab81610772565b9050919050565b7f4e6f7420656e6f75676820457468657220746f207075726368617365206974655f8201527f6d00000000000000000000000000000000000000000000000000000000000000602082015250565b5f61080c60218361073a565b9150610817826107b2565b604082019050919050565b5f6020820190508181035f83015261083981610800565b9050919050565b7f4974656d20616c726561647920736f6c640000000000000000000000000000005f82015250565b5f61087460118361073a565b915061087f82610840565b602082019050919050565b5f6020820190508181035f8301526108a181610868565b9050919050565b5f819050919050565b5f6108cb6108c66108c1846105c7565b6108a8565b6105c7565b9050919050565b5f6108dc826108b1565b9050919050565b5f6108ed826108d2565b9050919050565b6108fd816108e3565b82525050565b5f6080820190506109165f83018761059f565b61092360208301866108f4565b61093060408301856108f4565b61093d606083018461059f565b9594505050505056fea264697066735822122012c8eb53dfdf27a4db3e4ab6fc102020b81d757715320ee1f1228a31373f55ab64736f6c63430008150033",
  "immutableReferences": {},
  "source": "// contracts/Marketplace.sol\r\n\r\npragma solidity ^0.8.0;\r\n\r\ncontract Marketplace {\r\n    struct Item {\r\n        uint id;\r\n        address payable seller;\r\n        address payable buyer;\r\n        uint price;\r\n        bool sold;\r\n    }\r\n\r\n    uint public itemCount;\r\n    mapping(uint => Item) public items;\r\n\r\n    event ItemListed(uint id, address seller, uint price);\r\n    event ItemSold(uint id, address seller, address buyer, uint price);\r\n\r\n    function listItem(uint _price) public {\r\n        itemCount++;\r\n        items[itemCount] = Item(itemCount, payable(msg.sender), payable(address(0)), _price, false);\r\n        emit ItemListed(itemCount, msg.sender, _price);\r\n    }\r\n\r\n    function buyItem(uint _id) public payable {\r\n        Item storage item = items[_id];\r\n        require(_id > 0 && _id <= itemCount, \"Item does not exist\");\r\n        require(msg.value >= item.price, \"Not enough Ether to purchase item\");\r\n        require(!item.sold, \"Item already sold\");\r\n        item.buyer = payable(msg.sender);\r\n        item.seller.transfer(item.price);\r\n        item.sold = true;\r\n        emit ItemSold(_id, item.seller, item.buyer, item.price);\r\n    }\r\n}\r\n",
  "sourcePath": "C:\\Users\\mara1\\Downloads\\clover\\Marketplace\\contracts\\Marketplace.sol",
  "compiler": {
    "name": "solc",
    "version": "0.8.21+commit.d9974bed.Emscripten.clang"
  },
  "schemaVersion": "3.4.16",
  "updatedAt": "2024-05-31T09:31:11.624Z",
  "devdoc": {
    "kind": "dev",
    "methods": {},
    "version": 1
  },
  "userdoc": {
    "kind": "user",
    "methods": {},
    "version": 1
  }
}